:100000000C9434000C9449000C9449000C94490061
:100010000C9449000C9449000C9449000C9449003C
:100020000C9449000C9449000C9449000C9449002C
:100030000C9449000C9449000C9449000C9449001C
:100040000C9449000C9449000C9449000C9449000C
:100050000C9449000C9449000C9449000C944900FC
:100060000C9449000C94490011241FBECFEFD8E036
:10007000DEBFCDBF11E0A0E0B1E0EEEAFCE002C0DF
:1000800005900D92A233B107D9F70E94C5000C94D8
:1000900055060C94000080E480937C0086E88093F1
:1000A0007A000895ECE7F0E09081987F8770892BC3
:1000B0008083EAE7F0E080818064808380917A0029
:1000C00086FDFCCF809178009091790008958BB9DE
:1000D00085B18E7F85B985B1826085B983EF91E066
:1000E0000197F1F700C0000085B18D7F85B90895B3
:1000F0008BB985B1816085B985B1826085B983EF9F
:1001000091E00197F1F700C0000085B18D7F85B9BE
:100110000895CF93DF93EC0103C021960E947800ED
:1001200088818111FACFDF91CF910895CF93DF932A
:1001300000D0CDB7DEB790E8998390EC9A83E1E0E8
:10014000F0E0EC0FFD1FE80FF11D8081860F0E948B
:1001500067000F900F90DF91CF9108958FEF8AB9CC
:1001600083E084B987E893E10197F1F700C00000CC
:1001700088E30E9467008CE00E94670086E00E948E
:10018000670081E00E9467000895CF93DF93CDB7A9
:10019000DEB760970FB6F894DEBF0FBECDBF0E94EA
:1001A0004B000E94AE0080E895E20E948C01C12CB9
:1001B000D12C80E00E9452007C0181E00E9452001C
:1001C0008C01B70180E090E00E94400220E030E026
:1001D00040EA50E40E94CE0220E030EC4FE754E4C5
:1001E0000E94CE01F62EA72E982E892EB80180E00F
:1001F00090E00E94400220E030E040EA50E40E949B
:10020000CE0220E030EC4FE754E40E94CE01E62E0F
:10021000B72E782E692E9F938F937F936F938F9233
:100220009F92AF92FF9280E091E09F938F931F92F5
:1002300080E18F938E010F5F1F4F1F930F930E94DA
:100240005D03C8010E94C1018091C0000FB6F894FF
:10025000DEBF0FBECDBF88236CF40E94BA018B3283
:1002600021F43FEFC31AD30A05C08D3219F481E09F
:10027000C81AD10860E080E00E9496008F929F9299
:10028000AF92FF9286E191E09F938F931F926894C3
:10029000FF24F4F8FF928E010F5F1F4F1F930F93FF
:1002A0000E945D03C8010E94890060E081E00E9415
:1002B00096006F927F92BF92EF9280E291E09F93BF
:1002C0008F931F92FF921F930F930E945D03C801AB
:1002D0000E9489006AE081E00E949600DF92CF923E
:1002E0008AE291E09F938F931F92FF921F930F9347
:1002F0000E945D03C8010E9489009FEF29E638E152
:10030000915020403040E1F700C000000FB6F89453
:10031000DEBF0FBECDBF4DCFA0E0B0E0880F991F6C
:10032000AA1FBB1F880F991FAA1FBB1F9C01AD01ED
:10033000220F331F441F551F220F331F441F551F09
:1003400060E074E284EF90E00E943B0321503109A9
:100350003093C5002093C40088E18093C10086E0FB
:100360008093C20008959091C00095FFFCCF8093C8
:10037000C60008958091C0008823E4F78091C600EC
:100380000895CF93DF93EC0103C021960E94B3013F
:1003900088818111FACFDF91CF9108950E94E20107
:1003A0000C9494020E948D0258F00E94860240F044
:1003B00029F45F3F29F00C947D0251110C94C8027E
:1003C0000C9483020E94A50268F39923B1F355238C
:1003D00091F3951B550BBB27AA2762177307840758
:1003E00038F09F5F5F4F220F331F441FAA1FA9F3EE
:1003F00035D00E2E3AF0E0E832D091505040E695DC
:10040000001CCAF72BD0FE2F29D0660F771F881F3C
:10041000BB1F261737074807AB07B0E809F0BB0B2F
:10042000802DBF01FF2793585F4F3AF09E3F510543
:1004300078F00C947D020C94C8025F3FE4F3983E80
:10044000D4F3869577956795B795F7959F5FC9F72C
:10045000880F911D9695879597F90895E1E0660FAD
:10046000771F881FBB1F621773078407BA0720F026
:10047000621B730B840BBA0BEE1F88F7E09508958F
:10048000E89409C097FB3EF490958095709561952E
:100490007F4F8F4F9F4F9923A9F0F92F96E9BB27E4
:1004A0009395F695879577956795B795F111F8CF60
:1004B000FAF4BB0F11F460FF1BC06F5F7F4F8F4FCB
:1004C0009F4F16C0882311F096E911C0772321F0C1
:1004D0009EE8872F762F05C0662371F096E8862F59
:1004E00070E060E02AF09A95660F771F881FDAF7B0
:1004F000880F9695879597F9089597F99F6780E8F3
:1005000070E060E008959FEF80EC089500240A9465
:100510001616170618060906089500240A941216DE
:100520001306140605060895092E0394000C11F411
:10053000882352F0BB0F40F4BF2B11F460FF04C0BE
:100540006F5F7F4F8F4F9F4F089557FD9058440F17
:10055000551F59F05F3F71F04795880F97FB991F22
:1005600061F09F3F79F087950895121613061406DF
:10057000551FF2CF4695F1DF08C01616170618066C
:10058000991FF1CF86957105610508940895E89447
:10059000BB2766277727CB0197F908950E94E102D0
:1005A0000C9494020E94860238F00E948D0220F082
:1005B000952311F00C947D020C94830211240C9469
:1005C000C8020E94A50270F3959FC1F3950F50E0F9
:1005D000551F629FF001729FBB27F00DB11D639FF5
:1005E000AA27F00DB11DAA1F649F6627B00DA11D9B
:1005F000661F829F2227B00DA11D621F739FB00D41
:10060000A11D621F839FA00D611D221F749F3327B0
:10061000A00D611D231F849F600D211D822F762F49
:100620006A2F11249F5750409AF0F1F088234AF026
:10063000EE0FFF1FBB1F661F771F881F9150504092
:10064000A9F79E3F510580F00C947D020C94C802DE
:100650005F3FE4F3983ED4F3869577956795B79519
:10066000F795E7959F5FC1F7FE2B880F911D969533
:10067000879597F90895A1E21A2EAA1BBB1BFD01CD
:100680000DC0AA1FBB1FEE1FFF1FA217B307E40771
:10069000F50720F0A21BB30BE40BF50B661F771FC9
:1006A000881F991F1A9469F76095709580959095A9
:1006B0009B01AC01BD01CF010895AEE0B0E0E3E6DF
:1006C000F3E00C942C060D891E898F89988D26E005
:1006D0002C831A83098397FF02C080E090E801977A
:1006E0009E838D83AE01455E5F4F698D7A8DCE010D
:1006F00001960E948D034D815E8157FD0AC02F81B6
:100700003885421753070CF49A01F801E20FF31FE2
:1007100010822E96E4E00C944806ABE0B0E0E3E9EA
:10072000F3E00C941E066C017B018A01FC01178228
:100730001682838181FFCCC1CE0101963C01F60176
:100740009381F70193FD859193FF81917F01882328
:1007500009F4BAC1853239F493FD859193FF8191F3
:100760007F01853229F4B60190E00E948405E7CF2D
:10077000912C212C312CFFE1F315D8F08B3279F03C
:1007800038F4803279F08332A1F4232D20611DC02A
:100790008D3261F0803369F4232D216016C0832DE2
:1007A0008260382EE32DE4603E2E2AC0F32DF860DF
:1007B0001DC037FC2DC020ED280F2A3040F08E32AE
:1007C000B9F436FC81C1232D2064322E19C036FEC7
:1007D00006C08AE0989E200D1124922E11C0EAE0F6
:1007E0002E9E200D1124222EF32DF0623F2E08C0E4
:1007F0008C3621F4832D8068382E02C0883641F46F
:10080000F70193FD859193FF81917F018111B3CF12
:10081000982F9F7D9554933028F40C5F1F4F9FE3D2
:1008200099830DC0833631F0833771F0833509F039
:1008300059C021C0F801808189830E5F1F4F882431
:100840008394912C530113C02801F2E04F0E511CE8
:10085000F801A080B18036FE03C0692D70E002C0AF
:100860006FEF7FEFC5010E9479054C018201F32DE6
:10087000FF773F2E16C0280122E0420E511CF801DE
:10088000A080B18036FE03C0692D70E002C06FEF1A
:100890007FEFC5010E946E054C01F32DF0683F2EDD
:1008A000820133FC1BC0822D90E088169906B0F4BB
:1008B000B60180E290E00E9484052A94F4CFF5010D
:1008C00037FC859137FE81915F01B60190E00E946F
:1008D000840521102A9421E0821A91088114910440
:1008E00071F7E8C0843611F0893641F5F80137FE1A
:1008F00007C060817181828193810C5F1F4F08C0A6
:1009000060817181072E000C880B990B0E5F1F4FC1
:10091000F32DFF763F2E97FF09C090958095709537
:1009200061957F4F8F4F9F4FF0683F2E2AE030E058
:10093000A3010E94C005882E861845C0853731F472
:10094000232D2F7EB22E2AE030E025C0932D997FF3
:10095000B92E8F36C1F018F4883579F0B5C08037DC
:1009600019F0883721F0B0C0E92FE061BE2EB4FE47
:100970000DC0FB2DF460BF2E09C034FE0AC0292F24
:100980002660B22E06C028E030E005C020E130E04D
:1009900002C020E132E0F801B7FE07C0608171813A
:1009A000828193810C5F1F4F06C06081718180E05E
:1009B00090E00E5F1F4FA3010E94C005882E86188D
:1009C000FB2DFF773F2E36FE0DC0232D2E7FA22E4E
:1009D000891458F434FE0BC032FC09C0832D8E7E7E
:1009E000A82E05C0B82CA32C03C0B82C01C0B92C6C
:1009F000A4FE0FC0FE01E80DF11D8081803321F4BB
:100A00009A2D997EA92E09C0A2FE06C0B394B39474
:100A100004C08A2D867809F0B394A3FC11C0A0FE0F
:100A200006C0B21488F4280C922C9B180EC0B21485
:100A300060F4B60180E290E00E948405B394F7CFA1
:100A4000B21418F42B1802C0982C212CA4FE10C04C
:100A5000B60180E390E00E948405A2FE17C0A1FCCD
:100A600003C088E790E002C088E590E0B6010CC0C2
:100A70008A2D867859F0A1FE02C08BE201C080E287
:100A8000A7FC8DE2B60190E00E948405891438F439
:100A9000B60180E390E00E9484059A94F7CF8A948F
:100AA000F301E80DF11D8081B60190E00E948405FC
:100AB0008110F5CF222009F442CEB60180E290E009
:100AC0000E9484052A94F6CFF6018681978102C0A0
:100AD0008FEF9FEF2B96E2E10C943A06FC01059014
:100AE000615070400110D8F7809590958E0F9F1F30
:100AF0000895FC016150704001900110D8F7809575
:100B000090958E0F9F1F08950F931F93CF93DF93A0
:100B1000FB01238121FD03C08FEF9FEF2CC022FF3B
:100B200016C046815781248135814217530744F40A
:100B3000A081B1819D012F5F3F4F318320838C9332
:100B4000268137812F5F3F4F3783268314C08B0167
:100B5000EC01FB010084F185E02D0995892BE1F67C
:100B6000D80116968D919C911797019617969C9394
:100B70008E931697CE01DF91CF911F910F9108951B
:100B8000FA01AA27283051F1203181F1E8946F93BE
:100B90006E7F6E5F7F4F8F4F9F4FAF4FB1E03ED064
:100BA000B4E03CD0670F781F891F9A1FA11D680F02
:100BB000791F8A1F911DA11D6A0F711D811D911D35
:100BC000A11D20D009F468943F912AE0269F1124AA
:100BD0003019305D3193DEF6CF010895462F47700E
:100BE000405D4193B3E00FD0C9F7F6CF462F4F7069
:100BF000405D4A3318F0495D31FD4052419302D0C7
:100C0000A9F7EACFB4E0A69597958795779567956C
:100C1000BA95C9F700976105710508959B01AC016C
:100C20000A2E06945795479537952795BA95C9F793
:100C3000620F731F841F951FA01D08952F923F926E
:100C40004F925F926F927F928F929F92AF92BF92DC
:100C5000CF92DF92EF92FF920F931F93CF93DF9388
:100C6000CDB7DEB7CA1BDB0B0FB6F894DEBF0FBEE5
:100C7000CDBF09942A88398848885F846E847D8432
:100C80008C849B84AA84B984C884DF80EE80FD8034
:100C90000C811B81AA81B981CE0FD11D0FB6F894AA
:0E0CA000DEBF0FBECDBFED010895F894FFCF6B
:100CAE0053313A20252E3266562053323A20252EC5
:100CBE003266560D0A0053313A20252E3266560002
:100CCE0053323A20252E3266560053333A2025648D
:020CDE00000014
:00000001FF
